:1000000088EF02F08E0E006E0CC001F00BC002F003
:10001000036A0152D8A419EF00F002C001F0026A8D
:10002000080E005E0152D8A419EF00F0006A23EF19
:1000300000F0D89001BE22EF00F002360136000633
:1000400019EF00F0019ECBEF02F01850D8B471D038
:10005000006E1C50D8B46DD0002604E3810E00263B
:1000600068E204D07F0E005E64E363E019C020F014
:100070001D50201A198E1D8E1B501F02F4CF22F026
:100080001A501E02F4CF03F0F3CF21F01F02F350F9
:100090002226F4502122000E03221B501E02F35090
:1000A0002226F4502122000E026A03220222195055
:1000B0001F02F3502126F4500322000E0222195091
:1000C0001E02F3500326F4500222000E016A0122A0
:1000D0001B501D02F3502126F4500322000E022271
:1000E00001221A501D02F3500326F4500222000E82
:1000F000012219501D02F3500226F4500122002A59
:1001000001BE05D021360336023601360006000E48
:1001100021AE0AD0032A02220122015005E1025039
:1001200003E1035001E1002A20BE018E20AE019EB2
:1001300004D0006A016A026A036A12000F50D8B440
:10014000A5D01B6E1350D8B4A1D01B5E05E37F0E63
:100150001B26D8B09BD006D0810E1B5ED8A096D0AF
:10016000D8B494D01BC000F0016A026A036A1A6A0C
:1001700010C019F0198E11C018F012C017F0190E26
:100180001B6E1650175E0DE2010E185E0AE2195E34
:1001900008E21A5E06E21A2A192A182A16501726A9
:1001A00028D01550185E12E2010E195E0FE21A5E99
:1001B0000DE21A2A192A155018261650172619E387
:1001C000182A17E1192A15E11A2A13D014508009A8
:1001D000195E0EE2010E1A5E0BE21A2A1450800913
:1001E000192615501826E9E3192AE7E11A2AE5D756
:1001F00003801B2E01D00BD0D89017361836193635
:100200001A36D8900336023601361C36BAD71CA0EF
:1002100006D0D8900132023203321C3202D00006DE
:1002200035E01CBE1ED0D8901736183619361A364F
:100230001650175E07E2010E185E04E2195E02E234
:100240001A5E1AE31550185E05E2010E195E02E20D
:100250001A5E12E314508009195E03E2010E1A5E61
:100260000BE3032A09E1022A07E1012A05E1002A3A
:100270000DE001320232033210C01BF014501B1A81
:100280001BAE02D0018E06D0019E04D0006A016A26
:10029000026A036AFAEF02F01850B608186E036A91
:1002A00019C01CF0198ED89019321A321B32033241
:1002B000023201320032182EF6D71CAE0BD0001ECF
:1002C000011E021E031E002AD8B4012AD8B4022A35
:1002D000D8B4032ADAEF01F0D8B203D0EA6A200ECC
:1002E000E96E006A016A026A036A206A216A226A68
:1002F000236A1F501E101D101C102CE0200E246EAF
:10030000D890183619361A361B3620362136223642
:1003100023361F50235C08E11E50225C05E11D506E
:10032000215C02E11C50205C0FE31C50205E1D503C
:10033000D8A01D3C215E1E50D8A01E3C225E1F503E
:10034000D8A01F3C235ED880003601360236033623
:10035000242ED6D720C0EFFF21C0ECFF22C0ECFF37
:1003600023C0ECFF1200E950106E0F50126E19E01E
:100370000EC01BF00DC01AF00CC019F00BC018F025
:100380001F6A1E6A200E1D6E820E1C6E5EDE03C08A
:100390000EF002C00DF001C00CF000C00BF0122EE8
:1003A000E7D70EC01BF00DC01AF00CC019F00BC03F
:1003B00018F072D703C00EF002C00DF001C00CF0AF
:1003C00000C00BF00EAE0DD01006108A0B1E0C1ED6
:1003D0000D1E0E1E0B2AD8B40C2AD8B40D2AD8B480
:1003E0000E2A3B0E176E9A0E166ECA0E156E146A02
:1003F0000A0E126E0F50D8B4102AD882EA6A0B0E79
:10040000E96E0EC01BF00DC01AF00CC019F00BC045
:1004100018F017C01FF016C01EF015C01DF014C054
:100420001CF05ADF015000520FE10F28125C0CE063
:1004300010500CE00F0B125C01E03BE210BE39D013
:1004400010BC04D0200E30D0200E101610AA0DD0F3
:10045000109A0F50D8A410060050106E2D0E9EA8B2
:10046000FED7AD6E1050006E106A0F50125C0BE19B
:100470000050106E2E0E9EA8FED7AD6E1050006E6E
:10048000200E1016000E300E10AA0ED0109A0F502B
:10049000D8A410060050106E2D0E9EA8FED7AD6E8B
:1004A0001050006E106A300E002600509EA8FED735
:1004B000AD6ED89217C01BF016C01AF015C019F017
:1004C00014C018F01F6A1E6A1D6A0A0E1C6E04DF33
:1004D00003C017F002C016F001C015F000C014F000
:1004E000122E8BD70FEF03F0EA6A0C0EE96EEF5075
:1004F0000DE0020E016E006A002EFED7012EFBD722
:10050000970E006E002EFED7EF2EF3D71CEF03F0F0
:10051000F86AD09E600ED36ED26A9B6AB8960C0EB3
:10052000AF6EA20EAC6E900EAB6E0F015B6B5C6B90
:100530005D6B5E6B5F6B9A6A996A986A086A076A74
:10054000066A056A0A6A096AC150F00BC16E010E9B
:100550005B6F000E5F6F5C6F5D6F5E6FC050C00BB6
:100560000709C06EC08EC280000E016EC250830BA0
:100570000110C26E0D0E006E002EFED7C282C2B2F6
:10058000FED7C3CF09F0C4CF0AF00AC00CF009C0EF
:100590000BF0000137D503C00EF002C00DF001C012
:1005A0000CF000C00BF003C01BF002C01AF001C039
:1005B00019F000C018F01F6A1E6A200E1D6E810E11
:1005C0001C6E43DD03C00EF002C00DF001C00CF044
:1005D00000C00BF003C012F002C011F001C010F017
:1005E00000C00FF0166AC00E156E7F0E146E880ED6
:1005F000136EA4D503C008F002C007F001C006F0D6
:1006000000C005F0890EE96E08C00EF007C00DF0BD
:1006100006C00CF005C00BF0020E0F6EA4D60D0E36
:100620009EA8FED7AD6E0A0E9EA8FED7AD6E020E36
:100630000B6EFA0E0C6E58D70B2EFBD70F0194D70A
:020640000300B5
:020000040030CA
:0E00000021C85E3C0053A1000FC00FE00F406E
:00000001FF
;PIC18F45K50
;CRC=DB6D  CREATED="09-jul.-26 02:19"
